:020000040800F2
:10000000F0080020C1010008B7240008EF21000813
:10001000B5240008A9020008192C000800000000FF
:10002000000000000000000000000000DB240008C9
:100030004905000800000000D9240008DD2400085C
:10004000DB010008DB010008DB010008DB01000820
:10005000DB010008DB010008DB010008DB01000810
:10006000DB010008DB010008DB010008DB01000800
:10007000DB010008DB010008DB010008DB010008F0
:10008000DB010008DB010008DB010008B902000801
:10009000AD020008DB010008DB010008DB010008FD
:1000A000DB010008DB010008DB010008DB010008C0
:1000B000DB010008DB010008DB010008DB010008B0
:1000C000DB010008DB010008DB010008DB010008A0
:1000D000DB010008012C0008DB010008DB0100083F
:1000E000DB010008DB010008DB010008DB01000880
:1000F000DB010008DB010008DB010008DB01000870
:10010000DB010008DB010008DB010008DB0100085F
:10011000DB010008DB010008D5250008DB01000831
:10012000DB010008DB0100088D040008DB0100088A
:10013000DB010008DB010008DB010008DB0100082F
:10014000DB010008DB010008DB010008DB0100081F
:10015000DB01000899040008DB010008DB0100084E
:10016000DB010008DB010008DB010008DB010008FF
:10017000DB010008DB010008DB01000800000000D3
:10018000DB010008DB010008DB010008DB010008DF
:10019000DB010008DB010008DB010008DB010008CF
:1001A0000000000000000000DB010008DFF80CD0B8
:1001B00000F068F800480047A52C0008F00800206F
:1001C0000648804706480047FEE7FEE7FEE7FEE7F1
:1001D000FEE7FEE7FEE7FEE7FEE7FEE78125000813
:1001E000AD0100082DE9F05F0546002092469B46D0
:1001F00088460646814640241BE02846414647463D
:10020000224600F02FF853465A46C01A914110D3A7
:1002100011461846224600F016F82D1A67EB010821
:100220004F4622460120002100F00DF817EB00098F
:100230004E41201EA4F10104DFDC484631462A4627
:100240004346BDE8F09F202A04DB203A00FA02F181
:10025000002070479140C2F1200320FA03F31943B4
:1002600090407047202A04DB203A21FA02F0002156
:10027000704721FA02F3D040C2F1200291400843B6
:1002800019467047064C074D06E0E06840F0010350
:1002900094E8070098471034AC42F6D3FFF78AFF82
:1002A0005030000870300008FEE70000014800F000
:1002B000D3B90000FC030020014800F0CDB90000D4
:1002C000FC03002010B5002958D0826B4FF4D8737E
:1002D000046803EB0113E45814F004049460046808
:1002E000E4584DD0E40854600468E35803F0020376
:1002F000D3604FF4DA73046803EB0113E45804F09D
:100300000F04146111620468E358C3F30723D36137
:100310004FF4DC73046803EB0113E45814750468AC
:10032000E458240A54750468E458240C947504684D
:10033000E3581B0ED3754FF4DE73046803EB01130F
:10034000E45814760468E458240A54760468E4589F
:10035000240C94760468E3581B0ED376036820229D
:1003600089B11A610268536923F05003536190F810
:100370003C20222A0DD0322A0BD00FE0426BA5E799
:10038000640D1460B0E7DA600268536923F00A0371
:10039000ECE70268536923F40F43536112220123EF
:1003A000002990F83C1006D0522915D0622916D0A9
:1003B000722906D115E042290ED0622908D072298F
:1003C00008D080F83C3000BF00F092FB002010BD48
:1003D000322107E0522105E080F83C20F4E7222199
:1003E00000E0422180F83C10EEE7000010B50A88DA
:1003F000C2F30A02A2F5806202804A788B78D208A2
:1004000042EA4312C2F30A02A2F5806242808A786D
:10041000CB78920942EA83020B7942EA8322C2F343
:100420000A02A2F5806282800A794B79520842EA78
:10043000C312C2F30A02A2F58062C2804A7992090D
:1004400002724A79C2F301124272CA8842810A8951
:1004500082814A89C2810A7B02744A7B4274C989BB
:10046000418200F013FF074C6060A168401AB0F5AC
:10047000FA7F05D98021044800F0FFFE6068A06083
:1004800010BD00002000002000100240014800F0D4
:1004900061BC000060030020014800F05BBC00006C
:1004A0009004002001681823CAB2103AB2FBF3F29C
:1004B000054B6FF30901032A9B5CC36500D9091D35
:1004C00081650846704700003030000810B50146CD
:1004D00000208B698A6A4FF0C07453B1B3F5005F96
:1004E00015D072B1012A0CD0022A0AD0032A09D1F0
:1004F00004E01AB1012A06D0022A03D1C96AC9014F
:1005000000D5012010BDC96AA142FAD010BD002A51
:10051000F7D0012AF2D0022AF3D0032AF3D010BD7B
:1005200030B50468256825F480252560046863607B
:100530008368402B036803D099600068C26030BDB7
:100540009A600068C16030BD7047000010B5087D3A
:10055000012282403A48D0F8003243F00103C0F84B
:100560000032D0F8003223F47C53C0F80032D0F8C7
:1005700000324C6A43EA0423C0F80032D0F81C323F
:100580009343C0F81C32CB69B3B9D0F80C32934313
:10059000C0F80C328C894B6864F31F434C6900EB44
:1005A000C404C4F840320C890B6864F31F434C69DF
:1005B00000EBC404C4F84432CB69012B16D1D0F847
:1005C0000C321343C0F80C320C884B6864F31F43A1
:1005D0004C6900EBC404C4F840320C89CB6864F366
:1005E0001F434C6900EBC404C4F844328B69002BF0
:1005F000D0F8043205D01343C0F804320B6913B1AC
:1006000006E09343F8E7D0F814329343C0F814326D
:100610000B69012B04D1D0F814321343C0F8143203
:10062000096A012904D1D0F81C121143C0F81C1228
:10063000D0F8001221F00101C0F80012002010BD16
:100640000064004003480068416941F002014161D3
:1006500070470000FC0300202DE9F04104460068CB
:100660000026C168C1F300134169C1F3C002102123
:1006700013B10AB14E01C160206802694369C2F337
:100680000012C3F380131AB113B146F480660161FE
:10069000216848694FF00105C043C0074ED18A6800
:1006A0007648904323D000208B68754A9A4320D027
:1006B00000228F68734BBB431DD0002310431843A7
:1006C0003CD088688A68C0F340008B68C2F340223F
:1006D000C3F340431043184329D04A69204622F00F
:1006E00001024A6194F83C10122906D00AE0012068
:1006F000DAE70122DDE70123E0E701684A6922F435
:100700000F424A6190F83C10422908D0522908D083
:10071000722908D080F83C5000F008FB09E0222143
:1007200002E0322100E0622180F83C10F4E746F458
:10073000006620688168544A114381602168C86856
:10074000496910F0030FC1F3400104D019B1002131
:100750002046FFF7B7FD21680869496910F0030FCB
:10076000C1F3001104D019B101212046FFF7AAFD01
:10077000206C3043206420688169426911F0010FC8
:100780004369C2F30022C3F3C03305D022B11BB1C9
:10079000216C41F0010121648169C1F34003416989
:1007A000C1F340224169C1F3C0312BB122B119B16B
:1007B000216C41F0020121648169C1F38003416928
:1007C0004269C1F38021C2F3C0322BB121B11AB109
:1007D000216C41F004012164816911F0700F08D08F
:1007E00000224169C1F3C0234169C1F3C03112B194
:1007F00021E00122F5E7F3B1E9B1816901F070016F
:1008000040292FD006DC102909D020290BD030290F
:100810000DD123E0502929D0602908D12AE0216C8C
:1008200041F0080102E0216C41F01001216481696E
:1008300021F070018161206C00280DD02168042016
:10084000486084F83C502068416948F65B729143E7
:1008500041612046FFF7F6FEBDE8F081216C41F0D2
:100860002001E3E7216C41F04001DFE7216C41F01A
:100870008001DBE7216C41F48071D7E703000004BD
:100880000003000800000310190501002DE9F041E4
:10089000040004D094F83C00002518B107E00120C2
:1008A000BDE8F08184F83D50204600F093F8022026
:1008B00084F83C002068016821F002010160206892
:1008C000016841F00101016000F0E0FC07460326E9
:1008D00005E000BF00F0DAFCC01B0A2863D82068DE
:1008E0004068C007F6D020684168C90768D0A16990
:1008F000012901683FD021F080010160E0690128F1
:10090000206801683AD021F040010160206A012886
:100910002068016835D021F020010160606A01285B
:100920002068016830D021F010010160A06A012820
:10093000206801682BD021F008010160E06A0128DD
:100940002068016826D021F004010160D4E9020189
:100950000843D4E90412114308436168491E08435F
:100960002168C8612068016821F00101016000F080
:100970008DFC07461CE041F08001BEE741F04001DC
:10098000C3E741F02001C8E741F01001CDE741F095
:100990000801D2E741F00401D7E700BF00F076FC80
:1009A000C01B0A2804D904F83C6F0320657077E760
:1009B00020684068C007F1D120684068C00703D0B4
:1009C000042084F83C006AE72564012084F83C0098
:1009D000002065E700B50068154987B0884225D139
:1009E00014480021026842F000720260006802228E
:1009F00000F0007005900320CDE90210CDE900025F
:100A00000920049069460C4800F04CFB0022114676
:100A1000132000F0D5FC132000F0C6FC0022114684
:100A2000142000F0CDFC142000F0BEFC07B000BD87
:100A30000064004040380240000C024030B511B163
:100A4000012925D010E090F83C20222A28D090F8E7
:100A50003C20422A24D000BF90F83C20622A1FD0BC
:100A600090F83C20722A1BD090F83D20012A17D024
:100A7000012280F83D20622290F83C40722389B127
:100A8000122C19D0222C18D0422C19D0322214E06A
:100A900090F83C20322A03D090F83C20522ADBD137
:100AA000022030BD122C05D0322C06D0522C07D09B
:100AB000222202E0422200E0522280F83C2001E0A3
:100AC00080F83C300022026403685C6948F60175D6
:100AD0002C435C6180F83D2000680029416904D006
:100AE00041F050014161002030BD41F00A01F9E7B9
:100AF00070B5054600F0CAFB154C6168401AB0F5A8
:100B0000FA7F07D94FF48041124800F0B6FB00F09D
:100B1000BDFB6060686B0268A2F50070013805D00B
:100B2000012803D0022801D003280AD1521ED0B2D6
:100B30002070094900EB400001EB0010294602F04B
:100B40007DF806480068416941F00201416170BDCD
:100B500008000020001402402C000020FC030020AC
:100B60002DE9F05F0E46016804468868400105D40F
:100B70008868000102D48868C0006FD594F83D00F1
:100B800001280CD0012784F83D7094F83C002228FD
:100B900008D0322808D062280ED0122005E00220AA
:100BA000BDE8F09F422000E0522084F83C008868B5
:100BB000400103D5002507E07220F6E788680001B0
:100BC00001D5012500E002254FF4C07000EB0510AF
:100BD0000A5802F001020A50216B8A68EAB3D4F87D
:100BE00000C05CF800301343CA68496842EAC1019A
:100BF0000B434CF80030216B0A7C02F00F020A61B3
:100C00004FF4C271226801EB0511535823F00F0312
:100C1000535022685358D4F830C0DCF810C043EA6F
:100C20000C035350216B4FF4C47303EB05130A7D7F
:100C3000D1F8151042EA01222168CA50216B4FF405
:100C4000C67303EB05130A7ED1F8191042EA01229C
:100C50002168CA5021680A5801E00DE05AE042F0CC
:100C600001020A5000F012FB81464FF00008DFF845
:100C7000B0A0DFF8B0B026E022681358D1F80CC05D
:100C8000098843EA0C0343EA41511150B3E7701C51
:100C900019D02EB100F0FAFAA0EB0900B04212D937
:100CA000032084F83C004DB1012D09D04FF4000021
:100CB0002168886084F83D80032071E78020F7E791
:100CC0004FF40040F4E7ADB12068012D816816D0E3
:100CD000154888430028DAD194F83C00422811D006
:100CE000522811D0722813D084F83C7084F83D80CB
:100CF000002055E7206881682AEA0100EAE72BEA2C
:100D00000100E7E7222000E0322084F83C00EDE714
:100D10006220FAE7042084F83C00012040E700004C
:100D2000030000040003000800000310704790F85F
:100D30003510022903D0802141650120704705212B
:100D400080F835100068016821F001010160002081
:100D5000704700002DE9F84304464FF00009CDF834
:100D6000009063484FF41651A56D0068B0FBF1F791
:100D70002E6894F85C10082000FA01F131420FD07F
:100D800021680A6852070BD50A6822F004020A603B
:100D900094F85C108840A860606D40F001006065C8
:100DA00094F85C104FF0010808FA01F0304208D0C6
:100DB00021684969090604D5A860606D40F0020009
:100DC000606594F85C1004208840304208D02168A7
:100DD0000968890704D5A860606D40F0040060656B
:100DE00094F85C1010208840304218D021680968BF
:100DF000090714D5A86020680168490304D5006874
:100E0000000308D5A16C07E00168C90503D4016897
:100E100021F008010160216C09B12046884794F84F
:100E20005C1020208840304231D021680968C90612
:100E30002DD5A86094F8350005282068016806D0F3
:100E4000490347D5006800031DD4616C1CE021F004
:100E5000160101602068416921F080014161206C28
:100E600008B9A06C20B12068016821F00801016078
:100E700094F85C103F208840A86084F8349084F88F
:100E80003580216D1FE0E16B09B120468847606D18
:100E900000282BD0606DC00714D0052084F83500E1
:100EA0002068016821F0010101600098401C009059
:100EB000B84203D820680068C007F6D184F834909F
:100EC00084F83580E16C002910D001B02046BDE8DF
:100ED000F04308470168C905D5D4016821F0100125
:100EE000016084F8349084F83580CCE7BDE8F8835D
:100EF000040000202DE9F041044600F0C7F9064641
:100F00005CB1002584F83450022084F83500206854
:100F1000016821F0010101600DE00120BDE8F081D0
:100F200000F0B4F9801B052805D920206065032056
:100F300084F83500F2E720680068C007F0D1226825
:100F4000116820480140D4E901031843D4E903366D
:100F50003343184363691843A3691843E36918438B
:100F6000236A18430843616A042903D1D4E90B13A7
:100F700019430843106020684069666A20F0070141
:100F800030460E43012704280CD1A06A0643E06ACC
:100F900040B12046FFF79AFA20B14020606584F8FE
:100FA0003570BAE7206846612046FFF77BFA94F86F
:100FB0005C203F2191408160656584F83570002098
:100FC000ACE700003F8010F070B5044690F83400A4
:100FD000002501280CD0012084F8340094F83560F5
:100FE0000020012E06D084F834000225284670BD6A
:100FF000022070BD022684F8356060652046FFF748
:101000008FFA2068016841F001010160EEE72DE9E7
:10101000F0410446866D90F83400002501280DD07B
:10102000012084F8340094F835700020012F07D097
:1010300084F8340002252846BDE8F0810220FBE751
:10104000022784F8357060652046FFF769FA94F846
:101050005C103F208840B0602068016841F01601B4
:1010600001602068416941F080014161206C20B13C
:101070002068016841F0080101602068016841F0C2
:1010800001010160D7E731B500F000F9009C054689
:10109000601C00D0641C00F0F9F8401BA042FAD399
:1010A00038BD00002DE9F84FDFF890B100224FF075
:1010B00001084FF0030A4FF00F090BF1040E00BFB7
:1010C0000B6808FA02F42340A3426ED14D68022D4A
:1010D00001D0122D0ED1D50800EB850CDCF8205084
:1010E0005607F70E09FA07F6B5430E69BE402E43C0
:1010F000CCF82060066855000F790AFA05FC07F065
:10110000030726EA0C06AF40374307604E68012EFE
:1011100005D0022E03D0112E01D0122E0ED18768D9
:10112000CE6827EA0C07AE403E4386604668A64379
:101130000C79C4F30014944034434460C4688E684E
:1011400024EA0C04AE402643C6604C68E4006FD528
:101150003B4C256845F480452560246822F0030552
:1011600004F480440094374C2E19D6F808489507AB
:101170002F0F09FA07F5AC43334DA84201D10025E2
:101180002EE0324DA84201D1012529E0304DA84280
:1011900001D1022524E02F4DA84201D103251FE0F3
:1011A0002D4DA84202D104251AE041E02B4DA84262
:1011B00001D1052514E02A4DA84201D106250FE0F2
:1011C000284DA84201D107250AE0274DA84201D1A8
:1011D000082505E0254DA84201D1092500E00A2592
:1011E000BD402543C6F80858DBF800405D464E6810
:1011F0009C43F60300D51C432C60DEF80040754686
:101200004E689C43B60300D51C432C600B4D08353B
:101210002C684E689C43F60200D51C432C60074D99
:101220000C352C684E689C43B60200D51C432C60DC
:10123000521C102AFFF444AFBDE8F88F003C014077
:1012400044380240003001400000024000040240E7
:1012500000080240000C024000100240001402404E
:1012600000180240001C02400020024000240240FE
:101270000069084000D00120704742694A4042613D
:1012800070470AB1816170470904FBE701480068B3
:10129000704700000000002002480168491C0160FE
:1012A00070470000000000200B4810B5016841F4B1
:1012B00000710160016841F480610160016841F4DE
:1012C00080710160032000F09BF8002000F006F818
:1012D00000F03EF8002010BD003C024010B5014671
:1012E00088B00022362000F06BF8362000F05CF861
:1012F00013480024016841F010010160006805A94D
:1013000000F010000690684600F024F900F048F95B
:101310000C494000B0FBF1F10C480B4A491E026039
:1013200040F2E732C0E90324C0E9011400F051FBA8
:1013300010B1012008B010BD044800F066FBF9E7C9
:101340004038024040420F0000100040C00300201F
:1013500010B5032000F054F8002211466FF00B0086
:1013600000F02EF8002211466FF00A0000F028F875
:10137000002211466FF0090000F022F80022114609
:10138000501F00F01DF800221146101F00F018F841
:1013900000221146901E00F013F80022BDE8104014
:1013A0001146501E00F00CB800F01F0201219140C0
:1013B0004009800000F1E020C0F8001170470000F3
:1013C000F0B40E4B1B680C46C3F30223C3F10705B0
:1013D000042D00D90425191D072901D2002300E09E
:1013E000DB1E012606FA05F1491E214099409E4068
:1013F000761E16403143F0BC01F05EB80CED00E003
:10140000064900F0070208684FF6FF03184040EA5B
:101410000220034A10430860704700000CED00E012
:101420000000FA052DE9F0470E46050065D0DFF80B
:101430001481D8F80000F7B200F00F00B04207D2D4
:1014400088F80070D8F8000000F00F00B04254D1C6
:1014500028683D4C810712D5400703D5206840F429
:10146000E05020602878000703D5206840F46040F1
:1014700020602068A96820F0F000084320602878E8
:10148000C0072DD0304968680839012812D00228D9
:1014900013D0032811D00968890700292DDA2168A3
:1014A00021F0030101432160FFF7F0FE814641F284
:1014B000883A0EE009688903EFE709688901ECE7DB
:1014C000FFF7E4FEA0EB0901514502D90320BDE876
:1014D000F0872068696800F00C00B0EB810FEFD155
:1014E000D8F80010404601F00F01B14207D907704B
:1014F000006800F00F00B04201D00120E7E7287833
:10150000400705D52068E96820F4E05008432060D2
:101510002878000706D52068296920F4604040EA51
:10152000C100206000F05CF82168084AC1F3031193
:10153000515CC840064908600020FFF7CFFE00203C
:10154000C5E70000003C024008380240383000087F
:10155000040000200F2202600C4A136803F003030A
:101560004360136803F0F0038360136803F4E053EF
:10157000C36012684FF4E05303EAD20202610448E8
:10158000006800F00F000860704700000838024053
:10159000003C024001480068704700000400002041
:1015A0000448054900680968044AC1F38221515C76
:1015B000C840704704000020083802404830000846
:1015C0000448054900680968044AC1F34231515C86
:1015D000C840704704000020083802404830000826
:1015E000154810B5006810F00C02144813D01449C7
:1015F000042A0FD0082A0ED10F4C241F226823681A
:1016000002F03F025B0207D52068C0F38810A0FB00
:10161000010106E0084610BD2168C1F38811A1FB55
:1016200000010023FEF7DEFD2168C1F30141491CE2
:101630004900B0FBF1F010BD083802400024F4006E
:10164000001BB7002DE9F84F050071D0DFF8D092EC
:101650002878A9F1040BC007ABF104044AD0D9F8EB
:1016600000104846C1F38101012908D00068C0F389
:10167000810002280AD1DBF80000400206D520686C
:10168000800337D568680028DFD033E06868B0F59C
:10169000803F10D0B0F5A02F206810D020F480300B
:1016A0002060206820F4802020606868A8B1FFF7DF
:1016B000EDFD06460DE0206840F48030F4E740F48C
:1016C00080202060F7E700BFFFF7E0FD801B642863
:1016D00073D820688003F7D50CE0FFF7D7FD0646E6
:1016E00005E000BFFFF7D2FD801B6428F0D820681A
:1016F0008003F7D428788B4F80074FF0010A4FF012
:1017000000083DD5D9F80010484611F00C0F08D05C
:101710000068C0F3810002280BD1DBF80000400212
:1017200007D42068800715D5E868012800D111E0AA
:10173000F3E0E868B0B1C7F800A0FFF7A7FD0646E0
:1017400005E000BFFFF7A2FD801B022835D8206806
:101750008007F7D52068296920F0F80040EAC10029
:1017600020600DE0C7F80080FFF790FD064604E01A
:10177000FFF78CFD801B02281FD820688007F7D454
:101780002878000724D56848696981B1C0F800A0AD
:10179000FFF77CFD064604E0FFF778FD801B02287A
:1017A0000BD85F486C3000688007F5D510E0C0F8B2
:1017B0000080FFF76BFD064605E074E0FFF766FD6D
:1017C000801B02286FD856486C3000688007F5D41B
:1017D0002878400753D552483830016841F080518D
:1017E0000160006800F0805000905048016841F4AA
:1017F00080710160FFF74AFD064604E0FFF746FDF1
:10180000801B02284FD849480068C005F6D5444ED1
:10181000A868683601280FD00528306810D020F05D
:1018200001003060306820F004003060A868B8B172
:10183000FFF72CFD00900FE0306840F00100F4E766
:1018400040F004003060F7E7FFF720FD0099411AEF
:1018500041F28830814258D830688007F4D50EE0D4
:10186000FFF714FD009007E0FFF710FD0099411A03
:1018700041F28830814248D830688007F4D4A869A2
:1018800090B3D9F80010C1F38101022945D0022894
:10189000C7F8608003D0FFF7F9FC054638E0FFF792
:1018A000F5FC064605E030E0FFF7F0FC801B02285F
:1018B0002BD820688001F7D4D5E907010843A96A2D
:1018C0001B4A490802EB01416A6A41EA8211084356
:1018D00095F82C1040EA0161CBF80010C7F860A021
:1018E000FFF7D4FC054606E015E000BFFFF7CEFC8D
:1018F000401B022809D820688001F7D50BE000BF03
:10190000FFF7C4FC401B022802D90320BDE8F88F72
:1019100020688001F4D40020F8E70120F6E70000F9
:101920000838024000004742800E474200700040E5
:101930000000FFFF4FF0E0210428086903D020F0E9
:1019400004000861704740F00400FAE7704710B5E2
:10195000401EB0F1807F01D3012010BD4FF0E02484
:1019600060610F21601700F0A7FD0020A061072033
:101970002061002010BD10B5FFF7E8FF10BD7047D3
:10198000704730B590F83820012A20D0012280F825
:101990003820022380F8393003685C6824F0700432
:1019A0005C6003685C680D682C435C6003689C683D
:1019B00024F080049C6003689C6849680C439C6028
:1019C00080F83920002180F83810084630BD022008
:1019D00030BD10B5040003D094F8390010B107E011
:1019E000012010BD002084F83800204600F00CF8DB
:1019F000022084F83900211D206800F0F1FD01204B
:101A000084F83900002010BD70470168CA6842F0B0
:101A10000102CA600068016841F001010160002014
:101A200070477047134810B541880088081A00288D
:101A300002DC42F2107108440F4C2080FFF726FCB4
:101A40006060B4F900104FF42572A1F57A6151433A
:101A50004FF47A6291FBF2F1084AD180A168401AF2
:101A6000B0F5FA7F05D980210548FFF706FC6068CC
:101A7000A06010BD1C0000202000002040040020B9
:101A8000001002402DE9F041044690F838000D4660
:101A900001283DD0012684F83860022084F83900FE
:101AA000AAB3042A46D02068082A55D0D5E90027D1
:101AB000E968036A23F480530362D0F81CC0036A08
:101AC0002CF4407C4CEA07274FF6FF7C27F4704744
:101AD0000CEA013139434FF4204723F4204307EA4D
:101AE00002321A43C16102622068C16921F4406177
:101AF000C1612068C169AA6841EA0221C0F81C10CE
:101B000084F83960002084F83800BDE8F08101E0F5
:101B10000220FAE7D5E90012EB68206800F0F2FD38
:101B20002068816921F00C01816120688169AA68BF
:101B300011430FE0D5E90012EB68206800F024FEA5
:101B40002068816921F44061816120688169AA6807
:101B500041EA02218161D3E7D5E9002C2F7B016A9C
:101B600021F480710162C169036A21F0030141EA35
:101B70000C0121F0F00C39074FF420674CEA116199
:101B800023F4206307EA02221A43C161026220683B
:101B9000C16921F00C01C1612068C169AA681143C3
:101BA000ACE710B5040003D094F8390010B107E099
:101BB000012010BD002084F83800204600F00CF809
:101BC000022084F83900211D206800F009FD012061
:101BD00084F83900002010BD2DE9F0410646006868
:101BE000214986B088423CD120480025016841F057
:101BF000010101600068022400F0010005904FF42B
:101C000000708DE831000127CDE903576946184877
:101C1000FFF748FA4FF40058CDF80080CDE90145B0
:101C2000CDE9035769461348FFF73CFA134C1248B5
:101C3000C4E900050015A560C4E903504000C4E9EB
:101C40000508C010C4E9070520466562FFF752F990
:101C500018B197210AA000F0E0FF34627462B46208
:101C6000A66306B0BDE8F0810000014044380240A0
:101C70000000024000100240A064024090040020D6
:101C80002E2E2F5372632F74696D2E630000000097
:101C900070B5044690F839000E46022805D094F835
:101CA0003900012805D10AB903B170BD022084F8BA
:101CB00039002748274D36B1042E12D0082E2AD0DD
:101CC0000C2E1CD135E0216AC863206AC5642168E6
:101CD000206A3431FFF79BF92068C16841F4007134
:101CE0000CE0616AC863606AC5642168606A383163
:101CF000FFF78DF92068C16841F48061C16001225D
:101D00003146206800F0CCFC2068016841F00101F8
:101D10000160002070BDA16AC863A06AC564216823
:101D2000A06A3C31FFF773F92068C16841F4006193
:101D3000E4E7E16AC863E06AC5642168E06A4031AB
:101D4000FFF765F92068C16841F48051D6E70000CB
:101D5000B7260008F526000870B50446006801693A
:101D60004FF00005C943890715D4C168C9438907E5
:101D700011D4E91E01610120207620688069800766
:101D8000204602D0FFF74EFE04E000F098F820460F
:101D900000F096F8257620680169C943490717D4F1
:101DA000C168C943490713D46FF0040101610220DF
:101DB00020762068806910F4407F204602D0FFF72B
:101DC00031FE04E000F07BF8204600F079F825763B
:101DD00020680169C943090716D4C168C9430907C6
:101DE00012D46FF008010161042020762068C069D8
:101DF0008007204602D0FFF715FE04E000F05FF8F0
:101E0000204600F05DF8257620680169C943C906BF
:101E100017D4C168C943C90613D46FF0100101611A
:101E2000082020762068C06910F4407F204602D048
:101E3000FFF7F8FD04E000F042F8204600F040F81B
:101E4000257620680169C943C90708D1C168C9431B
:101E5000C90704D1891E0161204600F033F82068CB
:101E60000169C943090609D4C168C943090605D4F3
:101E70006FF0800101612046FFF781FD2068016954
:101E8000C943490609D4C168C943490605D46FF05E
:101E900040010161204600F01FF820680169C94334
:101EA00089060BD4C168C943890607D46FF02001A5
:101EB00001612046BDE87040FFF762BD70BD70470C
:101EC0007047000000680349884201D1FFF7E4B978
:101ED00070470000001000407047704730B4016840
:101EE0000A68D2065ED50A684968416B304A0968BB
:101EF00091420AD02F4A914207D02D4A6032914236
:101F000003D02C4A6032914201D1202222E0284B9A
:101F10001833DA1499421DD0264B1833994219D040
:101F2000234B7833994215D0224B7833994211D004
:101F30001F4B9202303399420CD01E4B30339942E2
:101F400008D01B4B9033994204D01A4B90339942DE
:101F500000D092010B6823F001030B60416B154B1D
:101F600009684833994202D91249091F05E0104B0C
:101F7000A833994203D90F4908390A6008E00C4C8C
:101F80000B4B4834103BA14201D9DA6000E09A6063
:101F9000426B818D12685160416B09680A6842F09A
:101FA00001020A60816A30BC0348FEF71FBA0000D4
:101FB00010600240106402404004002070B50268C6
:101FC00004461068D168536910F00F0F50D003F029
:101FD000010501F4907635435DD0C20705D0CA05EE
:101FE00003D5E26B42F00102E263420705D5DA074E
:101FF00003D0E26B42F00202E263820705D5DA0702
:1020000003D0E26B42F00402E263020705D5DA076F
:1020100003D0E26B42F00802E263E26B002A33D0A5
:10202000800604D5880602D5204600F01AFC2068F8
:102030004069E16BC0F38010090700D428B3204643
:1020400000F0C5FB2068416949061AD5416921F0B5
:1020500040014161606BA0B11B490165606BFEF7F7
:1020600066FE002810D0606B016DBDE87040084727
:10207000830610D58B060ED52046BDE8704000F0D3
:10208000F0BB2046FFF729FF70BD2046FFF725FF74
:102090000020E06370BD030606D50B0604D520467C
:1020A000BDE8704000F07ABD4006F3D54806F1D592
:1020B000D168204621F04001D160202184F83910F8
:1020C00000F094F870BD0000BF27000870B5040050
:1020D00004D094F83900002510B106E0012070BD4D
:1020E00084F83850204600F023F8242084F8390082
:1020F0002068C16821F40051C160204600F0F8FB5F
:102100002068016921F4904101612068416921F052
:102110002A0141612068C16841F40051C160E56352
:10212000202084F8390084F83A00002070BD0000B7
:1021300070B5064600681F4986B0884238D11E48EF
:102140000025016841F0100101600068694600F057
:1021500010000590C0200090022001900120029004
:1021600003200390072004901448FEF79BFF154CB2
:10217000134820604FF00060C4E901054014C4E931
:1021800003506561A561E561256220466562FEF741
:10219000B1FE18B171210CA000F03FFD7463002264
:1021A00011462520A663FFF70BF92520FFF7FCF861
:1021B00006B070BD001001404438024000040240E7
:1021C00040640240600300202E2E2F5372632F754F
:1021D000736172742E63000030B40368DC6844F0ED
:1021E0001004DC6030BC00F000BB70477047FEE7B5
:1021F00010B54FF480611048FFF73AF80F490022FC
:1022000008B14A6010BD48680028FBD101234B602B
:10221000886800EB4004C4EBC0100C6804EB80003D
:102220000860B0F5FA5F01DD9C1E8C600028E9DCD7
:102230008B600A6010BD0000000C024010000020FE
:10224000114810B50F4901600321416000214FF48E
:1022500000228160C0E903124FF44012C0E9052159
:102260000122C0E9072141628162C162FEF70EFBD3
:10227000002805D0BDE81040452104A000F0CDBCE9
:1022800010BD000000640040FC0300202E2E2F53E0
:1022900072632F63616E2E63000000000D4808B565
:1022A000016841F4800101600068002200F48000B0
:1022B000009011463A20FFF783F83A20FFF774F8B0
:1022C000002211464520FFF77BF8BDE80840452075
:1022D000FFF76AB830380240F0B52E4887B00024C6
:1022E000016841F001010160016801F001010591FF
:1022F000016841F002010160016801F002010591ED
:10230000016841F008010160016801F008010591D0
:10231000016841F080010160016801F080010591D0
:10232000016841F010010160016801F010010591A0
:10233000016841F0200101600068174E00F02000A4
:102340004FF480450590002229463046FEF799FF5C
:10235000124F002280213846FEF793FF2811CDE965
:10236000000469460E480294FEF79CFE0095012584
:10237000CDE90154694630460394FEF793FE802070
:102380000090CDE90154694638460394FEF78AFE71
:1023900007B0F0BD30380240001402400010024087
:1023A000000C024030B52B4887B029490160092153
:1023B0000024C0E9011442F20F71C0E90314446122
:1023C000FFF7EFFB18B1432123A000F026FC049493
:1023D00004A920480594FFF7D4FA18B14A211EA099
:1023E00000F01BFC0225CDE900450294002269465D
:1023F00018480394FFF746FB18B1532116A000F0CC
:102400000CFC0A200090012001900422694611482A
:10241000FFF738FB18B15A210FA000F0FEFB08228D
:1024200069460C480094FFF72DFB18B160210AA003
:1024300000F0F3FB0C22694606480195FFF722FBEA
:10244000002803D0662104A000F0E7FB07B030BDF0
:1024500000000140540400202E2E2F5372632F746D
:10246000696D2E63000000000D4810B50B49016036
:102470004FF4E1314160002181600C22C160C0E96C
:1024800004128161C161FFF721FE002805D0BDE87B
:102490001040472103A000F0C0BB10BD0010014058
:1024A000200300202E2E2F5372632F7573617274D8
:1024B0002E630000FEE770470907090E002806DAC0
:1024C00000F00F0000F1E02080F8141D704700F1CB
:1024D000E02080F80014704770477047FFF74BBA50
:1024E00030B5254893B00025016841F08051016066
:1024F000006800F0805011902048016841F440418C
:1025000001600068022400F4404011900120009016
:10251000000401908001CDE9064006200890A82023
:10252000CDE9090404200B906846FFF78BF800B151
:10253000FEE70CA90F2081E831004FF4A0500F9066
:102540004FF48050109005210CA8FEF76BFF00B1EE
:10255000FEE7FFF71FF84FF47A71B0FBF1F0FFF7D9
:10256000F6F90420FFF7E6F900221146501EFEF7A7
:1025700027FF13B030BD000040380240007000401B
:102580001048016841F4700101600F48016841F092
:10259000010101600C4A00210832116002680B4BF6
:1025A0001A400260031D0A4A1A60026822F480225F
:1025B000026005480C300160024958068039086005
:1025C0007047000088ED00E000380240FFFFF6FE93
:1025D000103000240148FFF7BFBB0000C0030020FB
:1025E000F0B50268234B244D244E254F254C4FF067
:1025F000804C984209D0604507D0A84205D0B0422F
:1026000003D0B84201D0A04204D122F0700E4A6833
:1026100042EA0E0298421BD0604519D0A84217D05A
:10262000B04215D0B84213D0A04211D0164DA842E6
:102630000ED0164DA8420BD0154DA84208D0154D0E
:10264000A84205D0144DA84202D0144DA84203D18F
:1026500022F44075CA682A4302608A68C2620A6826
:102660008262984201D0A04201D10969016301212F
:102670004161F0BD0000014000040040000800403E
:10268000000C0040000401400040014000440140B3
:102690000048014000180040001C0040002000409D
:1026A00010B50123046A8B409C430462036A8A408C
:1026B0001343036210BD10B5846B012184F83910F7
:1026C000226A824201D121760EE0616A814201D103
:1026D000022008E0A16A814201D1042003E0E16AFE
:1026E000814201D1082020762046FFF79BF9002087
:1026F000207610BD10B5806B012180F83910FFF7EE
:1027000090F910BD70B5046A24F001040462846974
:10271000056A164EB04214D0B0F1804F11D0144E5D
:10272000B0420ED0134EB0420BD0134EB04208D080
:10273000124EB04205D0124EB04202D0114EB042FD
:1027400003D124F00304144303E024F0030242F015
:1027500001041A0724F0F00444EA126225F00A0387
:1027600001F00A0119438261016270BD000001405D
:102770000004004000080040000C0040000401403C
:10278000004001400018004030B5046A24F01004F5
:1027900004628469056A24F4407444EA022222F443
:1027A00070444FF6FF7202EA03322243A02425F060
:1027B000A00304EA011119438261016230BD10B522
:1027C000806B0021C185C184FFF787FB10BD0168C4
:1027D000CA6822F49072CA6001684A6922F0010254
:1027E0004A61202180F83A107047F8B5044690F805
:1027F0003A00202833D179B372B394F83800012815
:102800002DD0012084F83800A162A2850025E5635F
:10281000222084F83A00606B134605650846666B13
:10282000216802463046091DFEF7CEFB206801688C
:102830004168009184F83850C16841F48071C160EA
:102840002068416941F0010141612068416941F01E
:10285000400141610020F8BDFFE70120FBE70220B5
:10286000F9E710B590F83A10222901D0022010BDE6
:102870008168B1F5805F11D00169002901681FD01E
:10288000496801F07F03816A4A1C82620B70C18D26
:10289000491E0904090CC18518D026E00269816A25
:1028A000002A0268526805D0D2B20A80816A491CA7
:1028B0008162ECE7C2F308020A80816A891CF7E7AB
:1028C0004A68816A4B1C83620A70E0E70168CA6843
:1028D00022F49072CA6001684A6922F001024A61DA
:1028E000202180F83A10FFF780FC002010BD000086
:1028F0002DE9F04104460068016921F44052E16885
:10290000114301612168C86849F20C629043236950
:10291000A268E5691A4363692B431A430243CA60FC
:102920002168486920F44072A06910434861E16958
:102930006425B1F5004F9748974A21684FF0320857
:102940003FD0914201D081427CD1FEF739FE00EBAD
:10295000C00101EB001061688900B0FBF1F6FEF7E1
:102960002FFE00EBC00101EB001061688900B0FB95
:10297000F1F0B0FBF5F06FF01801484306EB800171
:1029800008EB0110B0FBF5F000F0F006FEF718FEC2
:1029900000EBC00101EB001061688900B0FBF1F0B1
:1029A000B0FBF5F006EB0016FEF70AFE00EBC001E7
:1029B00001EB001061688900B0FBF1F7FEF700FE43
:1029C000D2E0914201D081423DD1FEF7F9FD00EB0A
:1029D000C00101EB001061684900B0FBF1F0B0FBF1
:1029E000F5F00601FEF7ECFD00EBC00101EB001075
:1029F00061684900B0FBF1F7FEF7E2FD00EBC001B2
:102A000001EB001061684900B0FBF1F0B0FBF5F09C
:102A10006FF01801484307EB800108EBC100B0FBE1
:102A2000F5F000F0F80006EB4006FEF7C9FD00EBFC
:102A3000C00101EB001061684900B0FBF1F7FEF73F
:102A4000BFFD3CE055E0FEF7ABFD00EBC00101EB44
:102A5000001061684900B0FBF1F0B0FBF5F0060131
:102A6000FEF79EFD00EBC00101EB0010616849001C
:102A7000B0FBF1F7FEF794FD00EBC00101EB001095
:102A800061684900B0FBF1F0B0FBF5F06FF01801A0
:102A9000484307EB800108EBC100B0FBF5F000F004
:102AA000F80006EB4006FEF77BFD00EBC00101EBF2
:102AB000001061684900B0FBF1F7FEF771FD00EB13
:102AC000C00101EB001061684900B0FBF1F0B0FB00
:102AD000F5F06FF01801484307EB800108EBC100E7
:102AE000B0FBF5F000F00700216830448860BDE8D5
:102AF000F081FEF755FD00EBC00101EB00106168AD
:102B00008900B0FBF1F6FEF74BFD00EBC00101EBD5
:102B1000001061688900B0FBF1F0B0FBF5F06FF0D8
:102B20001801484306EB800108EB0110B0FBF5F0FB
:102B300000F0F006FEF734FD00EBC00101EB0010E1
:102B400061688900B0FBF1F0B0FBF5F006EB001610
:102B5000FEF726FD00EBC00101EB00106168890063
:102B6000B0FBF1F7FEF71CFD00EBC00101EB00101C
:102B700061688900B0FBF1F0B0FBF5F06FF018016F
:102B8000484307EB800108EB0110B0FBF5F000F0C3
:102B90000F00A9E7001401400010014090F839101F
:102BA000212901D0022070478168B1F5805F016A58
:102BB0000BD04A1C0262026809785160C18C491E20
:102BC0000904090CC1840ED017E009880268C1F31A
:102BD0000801516001690029016A02D0491C0162A3
:102BE000ECE7891CFBE70168CA6822F08002CA6032
:102BF0000068C16841F04001C160002070470000DA
:102C000010B50448FFF76AF9BDE810400148FFF726
:102C1000D5B9000020030020FEE7FEE702E008C867
:102C2000121F08C1002AFAD170477047002001E046
:102C300001C1121F002AFBD17047000010B5838923
:102C4000C3814A6BF1EE040A928A52BA82814C6BBC
:102C5000D31AB3F5805FE48A64BA04804C6B248B8A
:102C600064BA00EE104AB8EE400A20EE200ADFED0A
:102C70000C0A20EE200A80ED010A496B897E8172E0
:102C8000416901DD491E03E013F5805F01DA491C4B
:102C9000416102EB4131028A891A816110BD000055
:102CA000000080382DED028B84B0FEF7FDFAFFF7AF
:102CB00017FCFFF711FBFFF7F1FAFFF7C1FAFFF777
:102CC000D3FBFFF76FFB4D4800F0AEF800214B48F7
:102CD000FDF7B4FE64224A494A48FFF77DFA022311
:102CE000494A04214948FEF7D3FF002637464FF4EE
:102CF000FA58DFED478A9FED478A474D41F2883900
:102D00004FF4804A06EBC60000EB061005EB80048A
:102D1000204600F029F9CDE900780297D4F858C090
:102D20002046F0EE681AB0EE481AF7EE080AB2EE46
:102D3000040A4B4652460121E047761C042EE1DB93
:102D4000314EDFF8D880364F4FF4FA790C3E00BF91
:102D5000FEF79CFAD8F80010401A484502D9FFF750
:102D600047FA0AE02F484FF4FA51C08810FB01F0EF
:102D70004FF4257190FBF1F03060002496ED000ACD
:102D800004EBC40000EB0410B8EEC00A05EB8000B1
:102D900004EB440107EB011180ED010AB1F90010C9
:102DA00000EE101A016EB8EEC00A8847641C042CAD
:102DB000E4DB95ED570ABDEEC00A10EE100A00B232
:102DC000009095ED3E0ABDEEC00A10EE100A95ED9A
:102DD000250A03B2BDEEC00A10EE100A95ED0C0AEA
:102DE00002B2BDEEC00A10EE100A01B2034800F0B4
:102DF000F9F80A20FEF747F9AAE70000FC030020D3
:102E0000BC020020200300201C00002054040020ED
:102E100000000000CDCCCC3D2C010020240000207F
:102E20002C0000204004002010B58AB00021044688
:102E30000120CDE9061005910091019102910391C5
:102E400004910E21CDE9080169462046FDF77EFB7D
:102E50000448844203D1044820631C3060630AB0F4
:102E600010BD0000FC030020EC00002010B504465B
:102E70002DED028BB0EE408AC06C2065FEF706FA9D
:102E8000E06494F85010401A84F8540084ED068AE7
:102E9000D4ED071AC4ED081A94ED0C0A84ED0D0A5E
:102EA00094ED010A30EE480A84ED070AB5EEC00A37
:102EB000F1EE10FA02DDF0EE400A01E0F1EE400A18
:102EC00094ED101AF4EEC10AF1EE10FA46DDD4EDDD
:102ED000030A20EE801A84ED091AD4ED0A0A94ED53
:102EE000042A42EE000A30EE610AC4ED0A0AD4ED6B
:102EF000051A60EE211AC4ED0B1A94ED0F0AF4EED8
:102F0000C00AF1EE10FA01DD84ED0A0AD4ED0A0AD6
:102F1000B1EE400AF4EEC00AF1EE10FA02D3B0EEC0
:102F2000600A01E084ED0A0A31EE000A70EE210A1F
:102F3000C4ED0C0A94ED0E0AF4EEC00AF1EE10FA9C
:102F400001DD84ED0C0AD4ED0C0AB1EE400AF4EE7A
:102F5000C00AF1EE10FA01D284ED0C0A94ED0C0ACD
:102F6000BDEC028B10BD0000034981650349C165BA
:102F70000349016670470000852F0008DD2F000817
:102F80006D2E00089DED003A9DED022ADDED012A2F
:102F9000B8EE433A017080ED113A80ED100A00EE70
:102FA000103AB8EE400A80ED0F0A00EE102AB8EE93
:102FB000400A80ED0E0AB8EEE20A80ED120AB8EE81
:102FC000C20A80ED010A9FED040A80ED0C0A0C3064
:102FD000C0EC030A70470000000000000C3080ECD9
:102FE000030A7047F0B4066B4FF40075049C35601B
:102FF000066B0025B560066BF560066B082535612C
:10300000066B0D0A3575056B6975056B110AA97597
:10301000016BCA75026B190A1176016B4B76026B54
:10302000210A9176016BCC76F0BC6421FDF798BD46
:103030000006101600061016000000000000000038
:10304000010203040607080900000000010203044E
:1030500070300008000000202C0000001C2C00082C
:103060009C3000082C000020C40800002C2C000814
:10307000000000000024F400000000000000000038
:10308000000000000000000001000000000000003F
:0C30900000000000000000000000000034
:04000005080001AD41
:00000001FF
